{
  "contractName": "Election",
  "abi": [
    {
      "inputs": [],
      "payable": false,
      "stateMutability": "nonpayable",
      "type": "constructor"
    },
    {
      "constant": true,
      "inputs": [],
      "name": "candidateCount",
      "outputs": [
        {
          "internalType": "uint256",
          "name": "",
          "type": "uint256"
        }
      ],
      "payable": false,
      "stateMutability": "view",
      "type": "function"
    },
    {
      "constant": true,
      "inputs": [
        {
          "internalType": "uint256",
          "name": "",
          "type": "uint256"
        }
      ],
      "name": "candidates",
      "outputs": [
        {
          "internalType": "uint256",
          "name": "id",
          "type": "uint256"
        },
        {
          "internalType": "string",
          "name": "name",
          "type": "string"
        },
        {
          "internalType": "uint256",
          "name": "vouteCount",
          "type": "uint256"
        }
      ],
      "payable": false,
      "stateMutability": "view",
      "type": "function"
    },
    {
      "constant": false,
      "inputs": [
        {
          "internalType": "string",
          "name": "_name",
          "type": "string"
        }
      ],
      "name": "add",
      "outputs": [],
      "payable": false,
      "stateMutability": "nonpayable",
      "type": "function"
    }
  ],
  "bytecode": "0x608060405234801561001057600080fd5b506100556040518060400160405280600b81526020017f43616e646964617465203100000000000000000000000000000000000000000081525061009e60201b60201c565b6100996040518060400160405280600b81526020017f43616e646964617465203200000000000000000000000000000000000000000081525061009e60201b60201c565b6101be565b6001600081548092919060010191905055506040518060600160405280600154815260200182815260200160008152506000806001548152602001908152602001600020600082015181600001556020820151816001019080519060200190610108929190610119565b506040820151816002015590505050565b828054600181600116156101000203166002900490600052602060002090601f016020900481019282601f1061015a57805160ff1916838001178555610188565b82800160010185558215610188579182015b8281111561018757825182559160200191906001019061016c565b5b5090506101959190610199565b5090565b6101bb91905b808211156101b757600081600090555060010161019f565b5090565b90565b6103dd806101cd6000396000f3fe608060405234801561001057600080fd5b50600436106100415760003560e01c80633477ee2e14610046578063a9a981a3146100fb578063b0c8f9dc14610119575b600080fd5b6100726004803603602081101561005c57600080fd5b81019080803590602001909291905050506101d4565b6040518084815260200180602001838152602001828103825284818151815260200191508051906020019080838360005b838110156100be5780820151818401526020810190506100a3565b50505050905090810190601f1680156100eb5780820380516001836020036101000a031916815260200191505b5094505050505060405180910390f35b610103610296565b6040518082815260200191505060405180910390f35b6101d26004803603602081101561012f57600080fd5b810190808035906020019064010000000081111561014c57600080fd5b82018360208201111561015e57600080fd5b8035906020019184600183028401116401000000008311171561018057600080fd5b91908080601f016020809104026020016040519081016040528093929190818152602001838380828437600081840152601f19601f82011690508083019250505050505050919291929050505061029c565b005b6000602052806000526040600020600091509050806000015490806001018054600181600116156101000203166002900480601f0160208091040260200160405190810160405280929190818152602001828054600181600116156101000203166002900480156102865780601f1061025b57610100808354040283529160200191610286565b820191906000526020600020905b81548152906001019060200180831161026957829003601f168201915b5050505050908060020154905083565b60015481565b6040518060600160405280600181526020018281526020016000815250600080600181526020019081526020016000206000820151816000015560208201518160010190805190602001906102f2929190610303565b506040820151816002015590505050565b828054600181600116156101000203166002900490600052602060002090601f016020900481019282601f1061034457805160ff1916838001178555610372565b82800160010185558215610372579182015b82811115610371578251825591602001919060010190610356565b5b50905061037f9190610383565b5090565b6103a591905b808211156103a1576000816000905550600101610389565b5090565b9056fea265627a7a723158207ac0b340eaa8f9ec735dadb62a0e72d6b13ef7174cf47cc516ff593cb7280a2b64736f6c63430005100032",
  "source": "pragma solidity >= 0.5.16 <= 0.8.11;\r\n\r\ncontract Election {\r\n\r\n  struct Candidate {\r\n    uint id;\r\n    string name;\r\n    uint vouteCount;\r\n  }\r\n\r\n  mapping(uint => Candidate) public candidates;\r\n\r\n  uint public candidateCount;\r\n\r\n  constructor() public {\r\n    addCandidate(\"Candidate 1\");\r\n    addCandidate(\"Candidate 2\");\r\n  }\r\n\r\n  function addCandidate(string memory _name) private {\r\n    candidateCount++;\r\n    candidates[candidateCount] = Candidate(candidateCount, _name, 0);\r\n  }\r\n\r\n  function add(string memory _name) public {\r\n    candidates[1] = Candidate(1, _name, 0);\r\n  }\r\n}",
  "sourcePath": "C:\\Users\\Joilson\\Desktop\\tudo\\Programação\\projetos\\dapp-election\\contracts\\Election.sol",
  "compiler": {
    "name": "solc",
    "version": "0.5.16+commit.9c3226ce.Emscripten.clang"
  },
  "schemaVersion": "3.4.4",
  "updatedAt": "2022-02-06T16:36:47.285Z",
  "networkType": "ethereum",
  "devdoc": {
    "methods": {}
  },
  "userdoc": {
    "methods": {}
  }
}